:1000000033C000004EC000004CC000004AC00000D9
:1000100048C0000046C0000044C0000042C00000CC
:1000200040C000003EC000003CC000003AC00000DC
:1000300038C0000036C0000034C0000032C00000EC
:1000400030C000002EC000002CC000002AC00000FC
:1000500028C0000026C0000024C0000022C000000C
:1000600020C000001EC0000011241FBECFEFD8E04A
:10007000DEBFCDBF12E0A0E0B1E0EEEFFBE202C0D8
:1000800005900D92A23BB107D9F723E0A2EBB2E0B5
:1000900001C01D92A731B207E1F70E94480F0C94EE
:1000A000FD15AECF8F929F92AF92BF92EF92FF92CB
:1000B0000F931F93CF93DF9300D0CDB7DEB7FA0134
:1000C000A90198014B015C018E0E9F1EA11CB11C61
:1000D000AFE1AA22BB24E60FF71FEF77FF274115F8
:1000E000A1E35A0710F00E942713E114A0E8FA06D2
:1000F00009F44AC0E114F10479F1D701A150B048E4
:10010000139750F10E9427130E942713862F880F00
:10011000816889834DC0E114F10491F07B2D7064F6
:100120007983E114F10479F0C7019058049798F4A9
:1001300082E090E0BE016F5F7F4F0E94871042C057
:1001400081E090E002C082E090E0BE016F5F7F4FEF
:100150000E94581037C0FFCFB501762F6627770F62
:10016000DF01AA0FBB1FAA0FBB1F6A2B7B2BD70176
:10017000A62BB72BBB2EB983AE2DA3706A2B6A8337
:1001800041155105C1F4C0CFBA2CAA24BB0CDF0124
:10019000AA0FBB1FAA0FBB1FAA2ABB2AD501B06892
:1001A000BB2EB983AA824115510509F4AFCF07C010
:1001B00081E090E0BFCFEF2B09F0B0CFACCFEF2BB9
:1001C000B9F3ACCF0F900F90DF91CF911F910F91AA
:1001D000FF90EF90BF90AF909F908F900895EF9217
:1001E000FF920F931F93E12C6894FF24F7F85ADFD6
:1001F0001F910F91FF90EF900895EF92FF920F9350
:100200001F93E12CF12C4EDF1F910F91FF90EF9087
:100210000895A4E0B0E0EFE0F1E00C94C5129E0177
:100220002F5F3F4F7901890124E030E0E6DFFE01D6
:10023000359660E070E0CB01B82FA72F962F882766
:100240002291BC01CD01620F711D811D911DE0172E
:10025000F10791F72496E6E00C94E112A2E0B0E0F9
:10026000E4E3F1E00C94C7128E010F5F1F4F22E010
:1002700030E0C3DF8A8190E0982F88272981820FA0
:10028000911D2296E4E00C94E312A1E0B0E0EBE4CF
:10029000F1E00C94C7128E010F5F1F4F21E030E098
:1002A000ACDF89812196E4E00C94E312A4E0B0E095
:1002B000ECE5F1E00C94C71209831A832B833C838D
:1002C0008E010F5F1F4F24E030E089DF2496E4E0C9
:1002D0000C94E3120F931F9300E010E0980140E0AC
:1002E00050E064E070E087E090E0E0DF1F910F9164
:1002F0000895A2E0B0E0EFE7F1E00C94C712298383
:100300003A838E010F5F1F4F22E030E068DF2296B4
:10031000E4E00C94E312CF93DF93EC0121E030E0B2
:1003200040E050E068E070E08BE090E0E2DF9E01AA
:1003300040E050E064E070E08BE090E0DADF22E043
:1003400030E040E050E068E070E08BE090E0D1DF2A
:1003500040E050E060E170E08BE090E05ADFDF9138
:10036000CF9108958130910551F422E238E140E0C7
:1003700050E064E070E081E190E0BBCF0895059724
:1003800049F420E032E040E050E064E070E081E1D8
:1003900090E0AFCF0895A1E0B0E0E1EDF1E00C9482
:1003A000C71229838E010F5F1F4F21E030E017DF56
:1003B0002196E4E00C94E312A8E0B0E0E2EEF1E074
:1003C0000C94C31209831A832B833C83CD82DE8273
:1003D000EF82F8860F2EF3E0EF2EF0E8FF2EF02DDF
:1003E0008E010F5F1F4F28E030E05CDE2896E8E0CA
:1003F0000C94DF12CF92DF92EF92FF920F931F9334
:10040000853089F4C12CD12C76016894C6F80FEFA1
:100410001FED20E030E040E050E068E070E08BE06D
:1004200090E0CADF13C0893089F4C12CD12C760149
:100430006894C6F8D5F80FEF1FED20E030E040E0FB
:1004400050E068E070E08BE090E0B6DF1F910F9124
:10045000FF90EF90DF90CF9008958F929F92AF9290
:10046000BF92CF92DF92EF92FF920F931F93CF93A1
:100470004B015C01C42FC12C6894DD24D3F87601B4
:100480000FEF1FEF980140E050E068E470E087E074
:1004900090E092DF0F2EF0E6CF2ED12C7601F02DDA
:1004A0000FEF1FEF980140E050E068E470E087E054
:1004B00090E082DF85E088169104A104B10499F4EC
:1004C0000F2EC12CFCE3DF2EE12CF2E0FF2EF02DED
:1004D0000FEF1FEF980140E050E060E070E087E030
:1004E00090E06ADF12C00F2EC12CFCE1DF2EE12C60
:1004F000F2E0FF2EF02D0FEF1FEF980140E050E0EB
:1005000060E070E087E090E057DFCC2359F000E036
:1005100011E121E031E040E050E064E170E087E08B
:1005200090E0C4DECF911F910F91FF90EF90DF908C
:10053000CF90BF90AF909F908F900895CF92DF9211
:10054000EF92FF920F931F9365307105810591051E
:1005500099F40F2EC12CFCE3DF2EE12CF2E0FF2EEC
:10056000F02D0FEF1FEF980140E050E064E070E0E5
:1005700087E090E021DF17C06930710581059105A2
:1005800091F40F2EC12CFCE1DF2EE12CF2E0FF2EC6
:10059000F02D0FEF1FEF980140E050E064E070E0B5
:1005A00087E090E009DF1F910F91FF90EF90DF90BF
:1005B000CF900895A4E0B0E0E0EEF2E00C94C51214
:1005C00029833A830B831C836894EE24E1F8FF248B
:1005D000F7F88E010F5F1F4F24E030E063DD2496B3
:1005E000E6E00C94E1120F931F9300E811E02FEF67
:1005F0003FEF40E050E068E070E08BE090E0DADF51
:100600000091BA0210E020EE3FEF40E050E06FE1D1
:1006100070E081E190E0CEDF1F910F910895A2E09C
:10062000B0E0E5E1F3E00C94C51229830A83EE24DF
:10063000E3946894FF24F7F88E010F5F1F4F22E0C8
:1006400030E030DD2296E6E00C94E112CF92DF92AA
:10065000EF92FF920F931F93813069F485E090E051
:1006600081DE01E02FEF41E050E068E070E081E1E1
:1006700090E0D5DF4AC0823031F503E02FEF40E053
:1006800050E064E070E081E190E0C9DFC12CD12C42
:1006900076016894E7F80FEF1EEF20E030E040E0CD
:1006A00050E068E070E081E190E086DE00E02FE756
:1006B00042E050E068E070E081E190E0B0DF85E08A
:1006C00090E050DE22C001E02FEF40E050E064E017
:1006D00070E081E190E0A3DFC12CD12C7601689419
:1006E000E7F80FEF1EEF20E030E040E050E068E078
:1006F00070E081E190E060DE00E02FE742E050E052
:1007000068E070E081E190E08ADF1F910F91FF9037
:10071000EF90DF90CF9008950F931F93CF93C82F42
:1007200040E050E060E070E085E090E072DD8B0139
:100730009C01007C1F70207EC0FD2460C1FD1069FB
:10074000C2FD026140E050E060E070E085E090E0D2
:10075000ADDDCF911F910F91089540E050E060E032
:1007600070E0CB0156CD0895ACE0B0E0EAEBF3E0E9
:100770000C94BB128530A1F185EB9FEAA2E0B0E0BA
:1007800089879A87AB87BC878D839E83AF83B88721
:100790008DE79FEAA2E0B0E089839A83AB83BC83B4
:1007A0000F2EFEE3CF2EFFEADF2EF2E0EF2EF12C2C
:1007B000F02D0F2EFEEF8F2EF5EA9F2EF2E0AF2EDA
:1007C000B12CF02D0F2EF6E34F2EFCEA5F2EF2E057
:1007D0006F2E712CF02D0EEF18EA22E030E037C0BA
:1007E00085EF9FECA1E0B0E089879A87AB87BC8753
:1007F00085EB9FECA1E0B0E08D839E83AF83B8874B
:1008000086E39FECA1E0B0E089839A83AB83BC834D
:100810000F2EFEE7CF2EF7ECDF2EEE24E394F12C23
:10082000F02D0F2EFEEB8F2EF6EC9F2EAA24A39414
:10083000B12CF02D0F2EFEE34F2EF4EC5F2E66242C
:100840006394712CF02D0DEF10EC21E030E040E0CE
:1008500050E068E370E083E090E028DD93018201DE
:1008600040E050E06CE370E083E090E01FDD950134
:10087000840140E050E060E470E083E090E016DD49
:100880009701860140E050E064E470E083E090E08E
:100890000DDD09811A812B813C8140E050E068E444
:1008A00070E083E090E002DD0D811E812F813885AC
:1008B00040E050E06CE470E083E090E0F7DC098514
:1008C0001A852B853C8540E050E060E570E083E0D0
:1008D00090E0ECDC00E412E020E030E140E050E0A9
:1008E0006CE170E083E090E0E1DC09E814EA2DE6D9
:1008F0003BE140E050E060E270E083E090E0D6DC75
:100900002C96E0E10C94D7120F931F93CF93DF93B3
:1009100001E010E022E030E040E050E06CE070E008
:1009200084E090E0C3DC00E12FEF40E050E06CE0B9
:1009300070E084E090E073DEC3E084E10E9439104F
:1009400040E050E060E270E084E090E09EDC8130C6
:1009500059F480E591E00E94DD1081E592E00E946B
:10096000DD10C0E0D0E003C0C15039F746C020E040
:1009700040E050E06CE070E084E090E00CDD21E0CD
:1009800040E050E060E270E084E090E004DD01E0EF
:100990002FEF42E050E06CE070E084E090E03FDE5A
:1009A00040E050E064E170E084E090E032DC6F3FD2
:1009B0007F4F8F4F9F4151F483E691E00E94DD10FD
:1009C00081E592E00E94DD10CFEFDFEF40E050E0E4
:1009D0006CE170E084E090E01CDC6F3F7F4F8F4F54
:1009E0009F4191F483E791E00E94DD1081E592E060
:1009F0000E94DD10CFEFDFEF07C083E891E00E9497
:100A0000DD10CFEFDFEFB3CFCE01DF91CF911F919C
:100A10000F910895EF92FF920F931F93CF93DF935F
:100A2000813011F540E050E068E470E087E090E04C
:100A300015DC7C0105E011E02FEF3FEF40E050E0D6
:100A400068E470E087E090E0B5DD5EDFEC0100E097
:100A500010E0970140E050E068E470E087E090E04B
:100A6000A9DDCE01992703C04FDFEC01FACFCDB746
:100A7000DEB7E6E00C94E1129C0140E050E060E05B
:100A800070E08EE090E035CC08959C0140E050E0AD
:100A900064E070E081E090E02CCC0895A0E0B0E04C
:100AA000E4E5F5E00C94C3129A01280F391F2115D3
:100AB000344088F56A017B01EC014038510550F45F
:100AC0008B019E0160E070E084E190E088DB80E0D3
:100AD00090E023C004E110E020E030E040E050E08E
:100AE00064E070E08FE190E0E1DB860120E030E03F
:100AF00040E050E068E070E08FE190E0D7DB8701F4
:100B00009E0140E050E060E070E08DE190E067DB46
:100B100080E090E002C08FEF9FEFCDB7DEB7E8E056
:100B20000C94DF12CF92DF92EF92FF920F931F93FC
:100B30008B016038710550F550E060E070E0032EE5
:100B40003BE0440F551F661F771F3A95D1F7302DB4
:100B50006C01E12CF12C4C295D296E297F2920E0C4
:100B600030E09801112700276A017B01C02AD12AB1
:100B7000E22AF32A00E014EF20E03CEF40E050E0EE
:100B800064E270E080E090E017DC32C000581F4F54
:100B900020E030E098011127002750E060E070E08D
:100BA000032E3BE0440F551F661F771F3A95D1F780
:100BB000302D6C01E12CF12C4C295D296E297F2907
:100BC00068017901C42AD52AE62AF72A00E014EF41
:100BD00020E03CEF40E050E064E270E080E090E034
:100BE000EBDB40E050E060E070E088E090E04DDB5F
:100BF0001F910F91FF90EF90DF90CF900895282FD5
:100C000041E050E068E270E080E090E0C4CB0895FD
:100C1000A0E0B0E0EEE0F6E00C94BD12EC017880CC
:100C20008C81893138F491E08B81893108F490E02E
:100C3000892F01C081E0682E8F81813011F010E092
:100C400001C010E189818430E9F018F4813031F07D
:100C500015C0853071F0873031F010C06894882459
:100C600086F8912C13C00F2EF8E48F2E912CF02DC6
:100C70000DC06894882487F8912C08C0812C992491
:100C8000939404C06894882485F8912C0F2EF2EB7D
:100C9000EF2EF2E0FF2EF02DF701808991898F7100
:100CA000918B808B8F8184878C858E5F21E030E0F3
:100CB000590102C0AA0CBB1C8A95E2F7C501A0E04D
:100CC000B0E0880F991FAA1FBB1F880F991FAA1F8A
:100CD000BB1FBC01CD01660F771F881F991F0E94A3
:100CE000911126E636E646E65FE30E9447120E942F
:100CF0006011F701738B628B8B85858BC884D12C37
:100D0000E12CF12CCC0CDD1CEE1CFF1CCC0CDD1CF2
:100D1000EE1CFF1CCC0CDD1CEE1CFF1CCC0CDD1CE7
:100D2000EE1CFF1CCC0CDD1CEE1CFF1CF0E2CF22E5
:100D3000DD24EE24FF248D85E82A8B858B7090E0DE
:100D4000982F88279295907FA0E0B0E0C82AD92AF2
:100D5000EA2AFB2AC12A0FEC1FE42CEF3FEF40E008
:100D600050E060E170E080E090E026DB662009F46E
:100D700041C0E2EBF2E0808991898066918B808BA3
:100D80000F2EC12CFCE0DF2EE12CF12CF02D0FEF0B
:100D900017EE20E030E040E050E068E070E08BE0EB
:100DA00090E00ADB06E013E020E030E040E050E0B5
:100DB0006CE070E08EE090E079DA00E010E09801FD
:100DC00040E050E06EE070E0CB0170DA0AE01AE536
:100DD0002CE030E040E050E062E170E08EE090E036
:100DE00065DA2DE740E050E066E170E08EE090E0EB
:100DF000D2DAA3C08B85882309F470C08D85823038
:100E000058F5EC85F0E0EE0FFF1FE752FE4F208112
:100E10003181A0E5BBE00E94AA128B019C0168947D
:100E200016F836952795179507951694D1F7DC0196
:100E3000CB01072E72E1B695A795979587957A9580
:100E4000D1F7702D17701C5F0115184018F001962E
:100E5000A11DB11D8C012EC0EC85F0E0EE0FFF1F2F
:100E6000E752FE4F80819181A0E0B0E0880F991F8A
:100E7000AA1FBB1F880F991FAA1FBB1F880F991F8E
:100E8000AA1FBB1F880F991FAA1FBB1F8C019D01A2
:100E90000F2EFBE03695279517950795FA95D1F714
:100EA000F02D97709C5F8115984020F00F5F1F4FC9
:100EB0002F4F3F4FC501880F991F880F991F880F2B
:100EC000991F880E991E0F77112720E83FEF42E007
:100ED00050E062E170E08EE090E06CDB8FEF88160E
:100EE0009104C9F0C4F0E2EBF2E08089918980625C
:100EF000918B808BC12CD12C76016894D2F80FEFA6
:100F000017EE20E030E040E050E068E070E08BE079
:100F100090E052DA12C00F2EC12CF4E1DF2EE12C4A
:100F2000F12CF02D0FEF17EE20E030E040E050E024
:100F300068E070E08BE090E03FDA0A812CEF40E05F
:100F400050E060E070E086E090E069DB2FEF2A0D72
:100F500040E050E060E070E082E090E01CDA8981DF
:100F6000873019F488E04BDE02C080E048DE8B85D4
:100F70008370833061F40CEC15E32FE53FEA40E029
:100F800050E06CE070E086E090E090D90BC00CE49B
:100F900018E52FE53FEA40E050E06CE070E086E0C5
:100FA00090E084D940E050E064E170E081E090E0BE
:100FB00030D96B017C01CC24E0EEDE22EE24FF244C
:100FC000F9E07F1202C06894C0F88C8190E0A0E044
:100FD000B0E0BA2FA92F982F882788279F71AA27BA
:100FE000BB274B8150E060E070E0440F551F661F47
:100FF000771F440F551F661F771F440F551F661F2D
:10100000771F552766277727842B952BA62BB72B81
:101010000D8110E020E030E0000F111F221F331F70
:101020000670112722273327802B912BA22BB32B5D
:101030008C019D010C291D292E293F2940E050E0FB
:1010400064E170E081E090E031D9CE80D12CE12CD8
:10105000F12C0B2EBAE0CC0CDD1CEE1CFF1CBA955B
:10106000D1F7B02D898190E0A0E0B0E0072E7CE0C0
:10107000880F991FAA1FBB1F7A95D1F7702DC82A18
:10108000D92AEA2AFB2A0FEF1BE020E030E040E0FB
:1010900050E064E270E080E090E08ED989859A8526
:1010A000892B21F481E890E09A87898729853A8500
:1010B00042E050E060E070E086E090E01AD929E07C
:1010C000721220C004E310E021E03CE140E050E077
:1010D0006CE170E087E090E0E9D82CE33FE040E08D
:1010E00050E060E070E089E090E003D903E318EAA3
:1010F00025EB38E040E050E060E170E087E090E010
:10110000D5D814C004E311E127E03CE140E050E011
:101110006CE170E087E090E0C9D82CE33FE140E06B
:1011200050E060E070E089E090E0E3D824E141E045
:1011300050E060E570E087E090E02DD92EE042E0DD
:1011400050E068E170E087E090E025D921E840E0D8
:1011500050E068E070E089E090E01DD902E010E026
:1011600020E030E040E050E064E470E080E090E0B7
:101170009DD881E06BDA16E084E17BD740E050E057
:1011800064E470E080E090E080D881FF0DC081E9E8
:1011900091E00E94DD1081E592E00E94DD108C81DB
:1011A0008950803120F018C0115031F721C0809152
:1011B000BB02813019F4872D1DD902C0872DD4DAE6
:1011C00000E014E62FEF31E840E050E068E170E025
:1011D00083E090E0EFD909C000E02EEF40E050E05E
:1011E00068E170E083E090E01ADA81E013DC08C087
:1011F00081EA91E0E2D781E592E0DFD78FEF9FEFC0
:10120000CDB7DEB7EEE00C94D912A0E0B0E0EBE091
:10121000F9E00C94C3127C019B018091C1028330E0
:1012200029F060E070E082E190E004C060E070E0EE
:1012300083E190E0FA01E20FF31FE115F44040F57D
:101240006A01E9014038510528F487019E010E9496
:10125000FD001EC08C012227332740E050E064E0EF
:1012600070E08FE190E022D8860120E030E040E09D
:1012700050E068E070E08FE190E018D887019E01AF
:1012800040E050E060E070E08DE190E00E94FD0001
:10129000CDB7DEB7E8E00C94DF120F931F938C01FB
:1012A00025E030E040E050E064E770E080E090E06E
:1012B0000E94FD001F910F9108950F931F938C01C1
:1012C0009091C102913069F09330B1F425E030E0A3
:1012D00044E050E060E070E08EE190E00E94FD00AC
:1012E00015C025E030E040E050E064E070E088E1C7
:1012F00090E00E94FD000AC025E030E040E050E0B0
:1013000064E670E080E090E00E94FD001F910F9184
:10131000089520E030E040E050E060E070E08AE0D6
:1013200090E00E94790120E040E050E064E170E04C
:101330008AE090E030D820E040E050E064E070E0E7
:101340008AE090E028D822E040E050E064E070E0DD
:101350008AE090E020C80895CF92DF92EF92FF924A
:10136000FCD96B017C01FF92EF92DF926F9383EBCC
:1013700091E09F938F930E943813E894C4F881E022
:1013800090E00F900F900F900F900F900F9022E031
:10139000C21623E0D2062AECE2062EEDF20611F484
:1013A00080E090E0919581959109FF90EF90DF901A
:1013B000CF9008958F929F92AF92BF92CF92DF927B
:1013C000EF92FF920F931F93CF93C82FE2EBF2E0BF
:1013D000178682E090E0918B808B148A158A1286A2
:1013E000138613A212A215A214A217A216A211A666
:1013F00010A615A614A613A612A6AEDF8C01892B83
:1014000009F087C084E090E00E948B016B017C01B1
:1014100085E090E00E948B014B015C018AE090E046
:101420000E948B018F718093BA02CD28CE28CF28DD
:1014300031F089288A288B2811F08111D4D880E2D4
:1014400090E00E948B01603472408105904121F44C
:1014500081E08093BB0202C01092BB02C4FD0CC0AD
:1014600086E090E00E948B016093B2027093B30219
:101470008093B4029093B502C5FD0CC087E090E064
:101480000E948B016093B6027093B7028093B802FA
:101490009093B902C6FD06C088E090E00E948B01DF
:1014A0006093BC02CC2334F089E090E00E948B0171
:1014B0006093BD028091BD02811103C085E88093D5
:1014C000BD028091BC02811103C084E78093BC02FD
:1014D0008FE190E00E948B016093BF028EE190E06B
:1014E0000E948B016F7719F06093C00207C08EE2F3
:1014F0008093C00284EC91E00E944B132091C002C3
:1015000040E050E064E170E089E090E00E94CB01AF
:1015100002C00FEF1FEFC801CF911F910F91FF90F5
:10152000EF90DF90CF90BF90AF909F908F900895F5
:10153000CF92DF92EF92FF920F931F936B017C018A
:1015400040E050E068E070E081E090E00E94090136
:10155000DC01CB0188279927A07F970186012F7096
:101560003327082B192B2A2B3B2B40E050E068E057
:1015700070E081E090E00E9456011F910F91FF9072
:10158000EF90DF90CF90089542E050E064E470E087
:1015900080E090E00E942E01892F81700895CF9203
:1015A000DF92EF92FF920F931F93CF93C82F80FF8C
:1015B00027C0C12CD12C76016894C6F8D1F80FE36E
:1015C00010EF20E030E040E050E060E070E085E0C7
:1015D00090E00E94DC010F2EC12CD12CF4E8EF2EFC
:1015E000F12CF02D0FEF1FEF980140E050E064E088
:1015F00070E081E190E00E94DC01C1FD2AC01CC0C6
:10160000C12CD12C76010FE310EF20E030E040E058
:1016100050E060E070E085E090E00E94DC0100E0D6
:1016200010E02FEF3EEF40E050E066E170E081E136
:1016300090E00E94DA0225C000E111E020E030E0F5
:1016400040E050E066E170E081E190E00E945601E8
:1016500018C000E111E02FE030E040E050E066E12A
:1016600070E081E190E00E94560100E111E020E08D
:1016700030E040E050E066E170E081E190E00E94FF
:101680005601CF911F910F91FF90EF90DF90CF9077
:1016900008950F931F938B019C0140E050E06CE292
:1016A00070E080E090E00E9456011F910F91089534
:1016B0000F931F93282F2170982F9D7109F4A9C0B3
:1016C0002223E1F081FF0DC000E010E020E030E0D7
:1016D00040E050E06DE070E080E090E00E94EF00BC
:1016E00064C000E010E020E030E040E050E063E063
:1016F00070E080E090E00E94EF0057C083FF1CC0C4
:1017000081FF0DC000E010E020E030E040E050E05C
:101710006FE070E080E090E00E94EF0046C000E0E3
:1017200010E020E030E040E050E067E070E080E072
:1017300090E00E94EF0039C084FF1CC081FF0DC003
:1017400000E010E020E030E040E050E06EE070E0CB
:1017500080E090E00E94EF0028C000E010E020E070
:1017600030E040E050E065E070E080E090E00E9412
:10177000EF001BC081FF0DC000E010E020E030E072
:1017800040E050E060E170E080E090E00E94EF0017
:101790000CC000E010E020E030E040E050E069E004
:1017A00070E080E090E00E94EF0043E050E064E4ED
:1017B00070E080E090E00E94450183FD1CC040E0A5
:1017C00050E060E370E08FE090E00E940901611555
:1017D00071058D40910509F05EC000E010E020E049
:1017E00030E040E050E060E070E0CB010E94EF00AC
:1017F0008FEF9FEF52C000E010E020E030E040E0CB
:1018000050E060E070E0CB010E94EF008FEF9FEFAF
:1018100044C085FF20C081FF0FC000E010E020E041
:1018200030E040E050E061E170E080E090E00E9454
:10183000EF0080E090E031C000E010E020E030E018
:1018400040E050E06BE070E080E090E00E94EF004C
:1018500080E090E022C081FF0FC000E010E020E0B7
:1018600030E040E050E06CE070E080E090E00E940A
:10187000EF0080E090E011C000E010E020E030E0F8
:1018800040E050E061E070E080E090E00E94EF0016
:1018900080E090E002C080E090E01F910F910895F9
:1018A0000F931F936115710581059105B9F08B01A7
:1018B0009C0140E050E064E370E080E090E00E9432
:1018C000560100E012E02FEF3FEF40E050E060E112
:1018D00070E080E090E00E94DA020CC000E010E0CE
:1018E0002FEF3DEF40E050E060E170E080E090E0FD
:1018F0000E94DA021F910F9108959C0140E050E090
:1019000064E070E086E090E00C94790108950F9314
:1019100000DD81E0A8D303E02FEF40E050E064E079
:1019200070E081E190E00E940F0320E040E050E091
:1019300060E070E081E190E00E94CB0181E093D310
:10194000E2EBF2E081E08787118A108A0F91089517
:10195000A0E0B0E0EDEAFCE016C6EC01C62E81E0A6
:1019600090E00E94B201D12CE12CF12C40E0C701A3
:10197000B6010E942D02C701B6010E949E029E017F
:101980003F7040E050E06CE170E088E090E00E9441
:10199000790103E02FEF40E050E060E170E088E083
:1019A00090E00E940F0340E050E060E170E088E0CA
:1019B00090E00E94450180FDF6CF0E946A0100E0A0
:1019C00010E0980140E050E068E470E087E090E0CB
:1019D0000E94560100E010E0980140E050E060E015
:1019E00070E087E090E00E94560185E090E00E9460
:1019F000B20140E050E06CE170E087E090E00E94CE
:101A000045018F73CDB7DEB7E8E0D9C50F931F93BB
:101A1000CF93DF93EC018D819E81892B51F4288136
:101A200040E050E06CE170E087E090E00E94CB0184
:101A300010C040E050E064E170E081E090E00E947E
:101A4000450180FF02C069E001C065E08D819E8193
:101A50007FDF09811A812B813C8140E050E06CE0FE
:101A600070E081E090E00E945601DF91CF911F91DC
:101A70000F910895A0E0B0E0EFE3FDE080C575D3DD
:101A800046DF62E070E080E090E00ED27DDD811103
:101A900004C087EE91E091D390C180E08BDC019689
:101AA00021F485EF91E089D388C183E078DD8DE270
:101AB00091E0AED8892B21F083E092E07ED37DC106
:101AC00058D383E192E079D384E592E076D38BE337
:101AD00091E09CDF81E090E40E943C0581E090E48D
:101AE0000E9445056CEB72E080E090E021DD6CE245
:101AF00071E080E090E0D4DE85E090E0FEDE83E0FF
:101B00000E948C03C3E2D1E00F2EFCEFEF2EF2E037
:101B1000FF2EF02D0F2EF0E0CF2EF1E0DF2EF02D76
:101B20000F2EF5EA8F2EF2E09F2EF02D80911003FC
:101B30008A8340E050E0BE018AE090E00E944E05BA
:101B400041E060E070E08CE090E00E94920582E06D
:101B5000AFDD40E050E064E470E080E090E00E949F
:101B600009016093F8027093F9028093FA0290934E
:101B7000FB02DC01CB018827907DA772B472892B10
:101B80008A2B8B2B31F3809110038F5F809310038E
:101B90008BE692E080D58091F8029091F902A091B5
:101BA000FA02B091FB0296FFF6C000E810E420E0D4
:101BB00030E040E050E064E470E080E090E00E94BB
:101BC000560140E050E06CE470E080E090E00E945C
:101BD0000901737088279927653171058105910581
:101BE00020F440E050E0C70110DB86E892E053D5D6
:101BF000F70112824AE050E066E171E0C7012BD59F
:101C0000892B09F0D4C0DFD02093F0023093F10289
:101C10004093F2025093F3026093F4027093F50242
:101C20008093F6029093F702EDD02093E802309370
:101C3000E9024093EA025093EB026093EC02709346
:101C4000ED028093EE029093EF02285E3E474545F9
:101C50005D4F6F4F7F4F8F4F9F4F08E0DCD4122FA7
:101C6000A32EB42E052F622F7A2D8B2D902F11DDF0
:101C7000212F2E7F3A2D4B2D502F60E070E080E019
:101C800090E008E0ADD42F5F3F4B4F4F5F4F6F4F59
:101C90007F4F8F4F9F4F2093E0023093E10240939C
:101CA000E2025093E3026093E4027093E5028093B2
:101CB000E6029093E7020091F0021091F102209168
:101CC000F2023091F3024091F4025091F5026091DA
:101CD000F6027091F7028AE091E0B3D00091E80239
:101CE0001091E9022091EA023091EB024091EC025E
:101CF0005091ED026091EE027091EF028EE091E062
:101D0000A0D00091E0021091E1022091E202309116
:101D1000E3024091E4025091E5026091E602709185
:101D2000E70282E191E08DD080911003F601828379
:101D300040E050E0B60186E190E00E944E0541E0AF
:101D400060E070E088E190E00E94920581E0B0DC04
:101D500081112DC09F928F928BD40F900F9040E0F5
:101D600050E064E470E080E090E00E94090167FFC9
:101D7000F6CF00E810E020E030E040E050E064E41E
:101D800070E080E090E00E945601809110038F5F28
:101D9000809310030CC000E810E927E234E240E031
:101DA00050E064E470E080E090E00E94560168EE4C
:101DB00073E080E090E078D0B9CE80E090E0CDB7DD
:101DC000DEB7ECE0F8C3A5E0B0E0E8EEFEE0DFC38C
:101DD0008E010F5F1F4FC80160DAFE013696D801F1
:101DE00020E030E040E050E060E070E080E090E033
:101DF00008E0F6D31291212BEA17FB07C9F72596C5
:101E0000E4E0E1C3A5E0B0E0E7E0FFE0C0C38E019D
:101E10000F5F1F4FC80151DAFE013696D80120E04E
:101E200030E040E050E060E070E080E090E008E00A
:101E3000D7D31291212BEA17FB07C9F72596E4E0C7
:101E4000C2C3EF92FF920F931F93CF93DF937C0156
:101E5000B22FA32FF42FE52F862F972FE70124E031
:101E6000E20EF11C0993202F312F4B2F5A2F6F2F89
:101E70007E2F08E0D0D3022F132FB42FA52FF62FDB
:101E8000E72FCE15DF0571F7CDB7DEB7E6E099C3D2
:101E90007DD161E070E080E090E04ED0F0D09BD149
:101EA000E9DD80E090E008958F929F92AF92BF921B
:101EB000CF92DF92EF92FF9234D24B015C0120E08F
:101EC00030E04AE755E4E3D26B017C0120E030E0EA
:101ED00040E85FE389D188230CF120E03FEF4FE732
:101EE00057E4C701B601CFD21816A4F420E030E0C1
:101EF00040E251E4C501B401CAD2E7D161157105D0
:101F000091F020E931E0C9010197F1F761507109C1
:101F1000D1F709C0C701B601D8D102C061E070E0B5
:101F2000CB010197F1F7FF90EF90DF90CF90BF903A
:101F3000AF909F908F9008954F925F926F927F9293
:101F40008F929F92AF92BF92CF92DF92EF92FF92C9
:101F5000CF93E7D16B017C012BEA3AEA4AEA50E4DD
:101F600096D24B015C0120E030E040E85FE33CD1D9
:101F700088230CF464C020E030E040E850E4C7015E
:101F8000B60185D22B013C0120E03FEF4FE757E43B
:101F90007AD218160CF03EC020E030E04AE754E454
:101FA000C701B60125D14B015C0120E030E04AE7D2
:101FB00055E46DD26B017C0120E030E040E85FE346
:101FC00013D188230CF120E03FEF4FE757E4C7011E
:101FD000B60159D21816A4F420E030E040E251E4F2
:101FE000C501B40154D271D16115710549F120E9DF
:101FF00031E0C9010197F1F761507109D1F720C0B3
:10200000C701B60162D102C061E070E0CB01019767
:10201000F1F716C020E030E04FE753E4C501B4010A
:1020200032D218163CF4C301B2014FD1CB01019753
:10203000F1F709C0C501B40148D1C62F01C0C1E004
:102040006C2F6A95F1F780E090E0CF91FF90EF90D0
:10205000DF90CF90BF90AF909F908F907F906F90C8
:102060005F904F900895682F70E080E090E01CCF63
:102070000895682F70E080E090E05ECF089584B10D
:102080008C6284B9249880E58CBD8CB58F7D8CBD25
:1020900008952A9808952A9A08958EBD61E070E007
:1020A00080E090E049DF0DB407FEFDCF8EB50895C6
:1020B000A0E0B0E0EDE5F0E164C27C015B018A01E3
:1020C0006901E7DFE114F10449F0E501EA0CFB1CCA
:1020D000899190E0E2DFEC16FD06D1F701151105BC
:1020E00051F0E6010C0D1D1D80E090E0D6DF8993D4
:1020F0000C171D07C9F765E070E080E090E01CDF79
:10210000CADF80E090E0CDB7DEB7EAE056C2A0E0DB
:10211000B0E0ECE8F0E135C27C015B018A016901C5
:10212000B8DFE114F10449F0E501EA0CFB1C8991E8
:1021300090E0B3DFEC16FD06D1F70115110549F06B
:10214000E6010C0D1D1D899190E0A7DF0C171D07FE
:10215000D1F765E070E080E090E0EEDE9CDF80E0AB
:1021600090E0CDB7DEB7EAE028C28DB58E7F8DBD99
:1021700008958DB581608DBD0895E0ECF0E090810B
:1021800095FFFDCF8093C600000008951092C50012
:1021900087E68093C400E0ECF0E080818D7F80834F
:1021A00086E08093C20088E18093C10082E491E0E0
:1021B00090931403809313030895CF93DF93EC015E
:1021C000888118162CF42196D8DF89911816E4F32B
:1021D000DF91CF91089595B184B180628F7784B9F2
:1021E000892F806A85B90895D9D008F481E00895CF
:1021F0000CD00FC107D140F0FED030F021F45F3F8A
:1022000019F0F0C0511139C1F3C014D198F39923DA
:10221000C9F35523B1F3951B550BBB27AA276217AA
:102220007307840738F09F5F5F4F220F331F441FEF
:10223000AA1FA9F333D00E2E3AF0E0E830D0915027
:102240005040E695001CCAF729D0FE2F27D0660F14
:10225000771F881FBB1F261737074807AB07B0E853
:1022600009F0BB0B802DBF01FF2793585F4F2AF069
:102270009E3F510568F0B6C000C15F3FECF3983E49
:10228000DCF3869577956795B795F7959F5FC9F7C6
:10229000880F911D9695879597F90895E1E0660F4F
:1022A000771F881FBB1F621773078407BA0720F0C8
:1022B000621B730B840BBA0BEE1F88F7E095089531
:1022C00004D06894B111D9C00895BCD088F09F574C
:1022D00090F0B92F9927B751A0F0D1F0660F771F72
:1022E000881F991F1AF0BA95C9F712C0B13081F052
:1022F000C3D0B1E00895C0C0672F782F8827B85F9A
:1023000039F0B93FCCF3869577956795B395D9F7B2
:102310003EF490958095709561957F4F8F4F9F4FBC
:102320000895E89409C097FB3EF4909580957095C8
:1023300061957F4F8F4F9F4F9923A9F0F92F96E911
:10234000BB279395F695879577956795B795F11186
:10235000F8CFFAF4BB0F11F460FF1BC06F5F7F4F23
:102360008F4F9F4F16C0882311F096E911C0772335
:1023700021F09EE8872F762F05C0662371F096E83E
:10238000862F70E060E02AF09A95660F771F881F0D
:10239000DAF7880F9695879597F90895990F0008B1
:1023A000550FAA0BE0E8FEEF16161706E807F90727
:1023B000C0F012161306E407F50798F0621B730BC2
:1023C000840B950B39F40A2661F0232B242B252B43
:1023D00021F408950A2609F4A140A6958FEF811DE6
:1023E000811D089597F99F6780E870E060E0089587
:1023F0009FEF80EC089500240A941616170618061D
:102400000906089500240A941216130614060506F8
:102410000895092E0394000C11F4882352F0BB0F89
:1024200040F4BF2B11F460FF04C06F5F7F4F8F4FEC
:102430009F4F089557FD9058440F551F59F05F3F27
:1024400071F04795880F97FB991F61F09F3F79F0D6
:1024500087950895121613061406551FF2CF469558
:10246000F1DF08C0161617061806991FF1CF8695DA
:102470007105610508940895E894BB2766277727BE
:10248000CB0197F908958ADF08F48FEF08950BD0F8
:10249000C0CFB1DF28F0B6DF18F0952309F0A2CF46
:1024A000A7CF1124EACFC6DFA0F3959FD1F3950FF4
:1024B00050E0551F629FF001729FBB27F00DB11DC8
:1024C000639FAA27F00DB11DAA1F649F6627B00D58
:1024D000A11D661F829F2227B00DA11D621F739F41
:1024E000B00DA11D621F839FA00D611D221F749F4F
:1024F0003327A00D611D231F849F600D211D822F96
:10250000762F6A2F11249F5750408AF0E1F08823DC
:102510004AF0EE0FFF1FBB1F661F771F881F9150E9
:102520005040A9F79E3F510570F05CCFA6CF5F3FAA
:10253000ECF3983EDCF3869577956795B795F7951C
:10254000E7959F5FC1F7FE2B880F911D96958795A4
:1025500097F90895A29FB001B39FC001A39F700D8A
:10256000811D1124911DB29F700D811D1124911D9B
:1025700008952F923F924F925F926F927F928F9227
:102580009F92AF92BF92CF92DF92EF92FF920F9302
:102590001F93CF93DF93CDB7DEB7CA1BDB0B0FB60C
:1025A000F894DEBF0FBECDBF09942A8839884888C9
:1025B0005F846E847D848C849B84AA84B984C8845F
:1025C000DF80EE80FD800C811B81AA81B981CE0F56
:1025D000D11D0FB6F894DEBF0FBECDBFED0108953B
:1025E0000F93083090F0982F872F762F652F542F58
:1025F000432F322F22270850F4CF220F331F441FBE
:10260000551F661F771F881F991F0A95B2F70F91F4
:10261000089597FB10F8169400080F93083098F06F
:102620000850232F342F452F562F672F782F892FAF
:10263000902DF4CF05949795879577956795579545
:102640004795379527950A95AAF70F91089581E048
:1026500090E0F894D2C2FB01DC0104C08D9101909E
:10266000801921F441505040C8F7881B990B0895F8
:10267000A0E0B0E0EDE3F3E18CCFAE014B5F5F4F44
:10268000FA0161917191AF0180911303909114034C
:1026900032D0E2E09ACF0F931F93CF93DF93E09174
:1026A0001303F0911403238121FF1BC08C01D0E0A0
:1026B000C0E0F80181918F016091130370911403C0
:1026C000DB011896ED91FC911997882331F009955B
:1026D000892B79F3DFEFCFEFECCF8AE00995892BD7
:1026E00019F08FEF9FEF02C08D2F9C2FDF91CF91BC
:1026F0001F910F910895ABE0B0E0E0E8F3E139CF2E
:102700006C017B018A01FC0117821682838181FFA3
:10271000BFC1CE0101963C01F6019381F70193FD03
:10272000859193FF81917F01882309F4ADC18532A2
:1027300039F493FD859193FF81917F01853221F4D6
:10274000B60190E0C0D1E8CF912C212C312CFFE1D3
:10275000F315D8F08B3279F038F4803279F0833287
:10276000A1F4232D20611DC08D3261F0803369F406
:10277000232D216016C0832D8260382EE32DE46066
:102780003E2E2AC0F32DF8601DC037FC2DC020ED71
:10279000280F2A3040F08E32B9F436FC75C1232D53
:1027A0002064322E19C036FE06C08AE0989E200DA5
:1027B0001124922E11C0EAE02E9E200D1124222E0B
:1027C000F32DF0623F2E08C08C3621F4832D8068F3
:1027D000382E02C0883641F4F70193FD859193FFAE
:1027E00081917F018111B3CF982F9F7D95549330B4
:1027F00028F40C5F1F4F9FE399830DC0833631F09F
:10280000833771F0833509F055C020C0F80180810D
:1028100089830E5F1F4F88248394912C530112C02B
:102820002801F2E04F0E511CF801A080B18036FE65
:1028300003C0692D70E002C06FEF7FEFC50138D192
:102840004C018201F32DFF773F2E15C0280122E0B5
:10285000420E511CF801A080B18036FE03C0692DE4
:1028600070E002C06FEF7FEFC50117D14C01F32D6F
:10287000F0683F2E820133FC19C0822D90E088164B
:102880009906A0F4B60180E290E01DD12A94F5CF1C
:10289000F50137FC859137FE81915F01B60190E02B
:1028A00012D121102A9421E0821A910881149104F6
:1028B00079F7E1C0843611F0893639F5F80137FE31
:1028C00007C060817181828193810C5F1F4F08C0B6
:1028D00060817181072E000C880B990B0E5F1F4FD2
:1028E000F32DFF763F2E97FF09C090958095709548
:1028F00061957F4F8F4F9F4FF0683F2E2AE030E069
:10290000A3011DD1882E861844C0853731F4232DAC
:102910002F7EB22E2AE030E025C0932D997FB92E6C
:102920008F36C1F018F4883579F0AEC0803719F0D1
:10293000883721F0A9C0E92FE061BE2EB4FE0DC09A
:10294000FB2DF460BF2E09C034FE0AC0292F26607B
:10295000B22E06C028E030E005C020E130E002C021
:1029600020E132E0F801B7FE07C060817181828109
:1029700093810C5F1F4F06C06081718180E090E001
:102980000E5F1F4FA301DBD0882E8618FB2DFF772B
:102990003F2E36FE0DC0232D2E7FA22E891458F413
:1029A00034FE0BC032FC09C0832D8E7EA82E05C0DC
:1029B000B82CA32C03C0B82C01C0B92CA4FE0FC0A6
:1029C000FE01E80DF11D8081803321F49A2D997E5E
:1029D000A92E09C0A2FE06C0B394B39404C08A2DE8
:1029E000867809F0B394A3FC10C0A0FE06C0B21410
:1029F00080F4280C922C9B180DC0B21458F4B60128
:102A000080E290E060D0B394F8CFB21418F42B18A1
:102A100002C0982C212CA4FE0FC0B60180E390E0E8
:102A200052D0A2FE16C0A1FC03C088E790E002C00D
:102A300088E590E0B6010CC08A2D867851F0A1FEA1
:102A400002C08BE201C080E2A7FC8DE2B60190E0FB
:102A50003AD0891430F4B60180E390E034D09A94EF
:102A6000F8CF8A94F301E80DF11D8081B60190E062
:102A70002AD08110F6CF222009F44ECEB60180E292
:102A800090E021D02A94F7CFF6018681978102C089
:102A90008FEF9FEF2B96E2E188CDFC01059061500E
:102AA00070400110D8F7809590958E0F9F1F089564
:102AB000FC016150704001900110D8F7809590950D
:102AC0008E0F9F1F08950F931F93CF93DF93FB01EA
:102AD000238121FD03C08FEF9FEF2CC022FF16C082
:102AE00046815781248135814217530744F4A081E0
:102AF000B1819D012F5F3F4F318320838C932681CD
:102B000037812F5F3F4F3783268314C08B01EC0141
:102B1000FB010084F185E02D0995892BE1F6D801B0
:102B200016968D919C911797019617969C938E936C
:102B30001697CE01DF91CF911F910F910895FA0161
:102B4000AA27283051F1203181F1E8946F936E7FEC
:102B50006E5F7F4F8F4F9F4FAF4FB1E03ED0B4E0DD
:102B60003CD0670F781F891F9A1FA11D680F791F1E
:102B70008A1F911DA11D6A0F711D811D911DA11D2F
:102B800020D009F468943F912AE0269F112430193F
:102B9000305D3193DEF6CF010895462F4770405DDA
:102BA0004193B3E00FD0C9F7F6CF462F4F70405D89
:102BB0004A3318F0495D31FD4052419302D0A9F7E4
:102BC000EACFB4E0A6959795879577956795BA95DE
:102BD000C9F700976105710508959B01AC010A2EA4
:102BE00006945795479537952795BA95C9F7620F7B
:0E2BF000731F841F951FA01D0895F894FFCF3A
:102BFE00418800CADE574156452300000000000000
:102C0E00000000000000418800CADE564557411002
:102C1E00020000418800CADE5741564521050500D5
:102C2E00090901010000810000010034FDFDFDFDD8
:102C3E0000000000000300000000BD1000000000B6
:102C4E005047462063616C20636F6D706C657465D0
:102C5E002E2E0050474620492043414C20455252CB
:102C6E004F520050474620512043414C204552526E
:102C7E004F52005047462043414C204552524F522E
:102C8E0000504C4C206973206C6F636B65642E2E64
:102C9E0000504C4C204C4F434B494E47204552520E
:102CAE004F52004445564943452049443A20256C2D
:102CBE00780D0A00585452494D204F545020524519
:102CCE004144204641494C0D000004A8050008501F
:102CDE000B0010A116002049444C45204641494C9A
:102CEE0045440D0A00494E4954204641494C45443D
:102CFE000D0A00434F4E464947204641494C454434
:102D0E000D0A00434F4E4752415453212121204377
:102D1E006F6E66696720616E6420496E6974206605
:102D2E00756E6374696F6E7320636F6D706C65740E
:102D3E00652077697468206E6F206572726F72738A
:102D4E00210D0A005374617274696E67206D61699A
:102D5E006E206C6F6F702E2E0D0A006672616D659F
:102D6E002073656E742066726F6D20696E6974696A
:102D7E0061746F720D006672616D652072656365B8
:102D8E00697665642066726F6D20526573706F6E22
:102D9E006465720D004457545F5355434345535376
:022DAE00000023
:00000001FF
